:020000000F28C7
:10000800FF0003088312AB000408AC000A08AD0027
:100018007E08AE009C2A583084000030FE00423032
:10002800FF0020208000840A04085E3A031924286F
:10003800FF0A0319FE0A15287E088A007F08820035
:100048005E3084007E302920312864008001840AD3
:1000580004060319003404062A28B0238312E70192
:100068000314E70D6400482083126F086E04031D13
:100078003E283F2840283E2436280F28FF340334E2
:10008800013401340134013483126508013A031D37
:100098004E284F2858286408013A031D542855282B
:1000A8005828E3010314E30D6708013A031D5D288E
:1000B8005E2863280310003003180130E6007A0830
:1000C800013A031D682869286C28F4010314F40D0B
:1000D8008129E708031D712872287F28E608031D77
:1000E800762877287F28FA08031D7B287C287F2814
:1000F800F6010314F60DFA08031D832884289228B4
:100108007408013A031D89288A28922803100030B0
:1001180003180130F400F6010314F60DE408031D7A
:1001280096289728B02863088313013A031D9D2851
:100138009E28B028E508031DA228A328B028FA089D
:10014800031DA728A828B028031000300318013081
:10015800E300F6010314F60D92291A2483126708A6
:10016800013A031DB828B928C3286508013A031DB8
:10017800BE28BF28C3280430A0002008F6007A084B
:10018800013A031DC828C928CD280430A00020083A
:10019800F60003306F06031DD328FF306E06031DDB
:1001A800D628D728DB280230A0002008F60092299C
:1001B8006708013A031DE128E228EC287D100310A6
:1001C800003003180130E6000330A0002008F600D4
:1001D800E708031DF028F1281829FD107D18F528D7
:1001E800F628FF28FF30EB00FB30EA006C30E9000E
:1001F8002030E8007D146B086A0469046804031D54
:10020800062907290E29E6010314E60D0430A0008B
:100218002008F6007A08013A031D13291429182921
:100228000430A0002008F6009229FD181C291D2979
:100238002229D030EC008A30ED00FD146D086C04E2
:10024800031D272928292C290430A0002008F6009E
:100258006508013A031D3129322936290430A000E6
:100268002008F6007A08013A031D3B293C29402959
:100278000430A0002008F600E708031D442945299A
:1002880049297D10F6010314F60D92297D10FD1001
:1002980071238312FA08031D52295329612974080E
:1002A800013A031D58295929612903100030031800
:1002B8000130F400F6010314F60DE708031D652963
:1002C80066297329E608031D6A296B297329FA0828
:1002D800031D6F2970297329F6010314F60D6F08A1
:1002E8006E04031D782979297F297D1103100030B8
:1002F80003180130F600922992297608003A03196A
:100308006D28013A0319B128033A0319DC28013A88
:1003180003191929073A03194A29802908000030C6
:10032800051801307B06031D9A299B29B029013045
:10033800AF002F08DE0765305E02031CA429A5293B
:10034800AF290310003003180130E7000310003014
:1003580003180130DE00B5290310003003180130FE
:10036800DE000030051801305B06031DBC29BD29DD
:10037800D0290130AF002F08E00765306002031C68
:10038800C629C729CF29E7010314E70D0310003058
:1003980003180130E000D52903100030031801309C
:1003A800E0000030851A01307C06031DDC29DD29B8
:1003B800F0290130AF002F08F00765307002031CE8
:1003C800E629E729EF29FA010314FA0D0310003092
:1003D80003180130F000F52903100030031801302C
:1003E800F0000030851A01305A06031DFC29FD294A
:1003F800122A0130AF002F08DF0765305F02031CA7
:10040800062A072A112A0310003003180130FA00BF
:100418000310003003180130DF00172A03100030E2
:1004280003180130DF000030051A01307506031D7E
:100438001E2A1F2A342A0130AF002F08F907653019
:100448007902031C282A292A332A031000300318AA
:100458000130E5000310003003180130F900392A93
:100468000310003003180130F9000030051A01307C
:100478005D06031D402A412A542A0130AF002F0887
:10048800F80765307802031C4A2A4B2A532AE501EB
:100498000314E50D0310003003180130F800592A41
:1004A8000310003003180130F800003085190130BE
:1004B8007306031D602A612A762A0130AF002F08CF
:1004C800E20765306202031C6A2A6B2A752A031048
:1004D800003003180130E400031000300318013025
:1004E800E2007B2A0310003003180130E2000030DC
:1004F800851901305C06031D822A832A962A013059
:10050800AF002F08E10765306102031C8C2A8D2A91
:10051800952AE4010314E40D031000300318013098
:10052800E1009B2A0310003003180130E1000800A5
:100538000B1C9F2AA02AA62A05080B108B117D11D7
:100548000C3095000B1DA92AAA2AB02A8B1EAD2AA9
:10055800AE2AB02A0B1164000C1CB32AB42A0A2B49
:1005680083160C1CB82AB92A0A2B83120C10F830EF
:100578008F0030308E0064000130AA002A08F70787
:100588007708FF3A031DC92ACA2ACF2A0310003068
:1005980003180130F7006400EB1FD32AD42AE82A95
:1005A8000130E807003003110318013E031DE90775
:1005B800003003110318013E031DEA070030031140
:1005C8000318013E031DEB070630663E8400840ACB
:1005D8008313801FF02AF12AF72A0130EC07031849
:1005E800ED0A0030ED07F21FFA2AFB2A012B013031
:1005F800F1070318F20A0030F207932183126E08FC
:10060800AF01AF076F08B001B007ED2383122E08C2
:10061800FE002D088A002C0884002B088300FF0E9A
:100628007F0E09000310003003180130A700A41F33
:100638001E2B1F2B272BA309A409A30A0319A40AFD
:10064800A7010314A70DA61F2A2B2B2B302BA509B6
:10065800A609A50A0319A60A260825040319352B95
:10066800362B662BA8010314A80D452B0130031067
:10067800A50DA60DFF3E031D3B2B0130A90029083F
:10068800A807A61F482B492B3A2B26082402031D2E
:100698004F2B25082302031C522B532B592B2508BB
:1006A800A3022608031CA403A40201300310A60C0D
:1006B800A50CFF3E031D5A2B0130A802031D652B14
:1006C800662B492BA708031D6A2B6F2BA309A409C6
:1006D800A30A0319A40A702B08006F086E040319F3
:1006E800762B772BAF2BE508031D7B2B7C2B962BCA
:1006F8001430A5000030A6007708A100A201210847
:10070800A3002208A4001623831224082304031D2F
:100718008E2B8F2B952B0130EE020030031CEF033C
:10072800EF02AF2B0530A5000030A6007708A10026
:10073800A2012108A3002208A4001623831224087A
:100748002304031DA82BA92BAF2B0130EE02003088
:10075800031CEF03EF0208003930831685000310ED
:100768008312003003180130850039308316960053
:1007780007308312990003100030031801309F00DE
:10078800031083160030031801309F0021309500B4
:10079800C03083128B0083168C0103148C0D073034
:1007A800810001308312900004309200FB308F00EA
:1007B8001D308E000C3095008316920192030310B1
:1007C80083120030031801309300703083168F00B5
:1007D8000800EF30B100310895052F1CF42BF52BDC
:1007E800F62B1516DF30B10031089505AF1CFD2B2F
:1007F800FE2BFF2B95163008B2002F08B1000230EF
:100808000310B20CB10CFF3E031D042C31089300F9
:100818003008B2002F08B10002300310B20CB10C3E
:10082800FF3E031D112C31089300080003306F02AE
:10083800031D202CFF306E020318232C242C3D2C82
:100848000A30A5000030A6007708A100A2012108FF
:10085800A3002208A4001623831224082304031DDE
:10086800362C372C3D2C0130EE070318EF0A0030E8
:10087800EF0708007D19412C422C472C7830F100F5
:10088800EC30F2007D1572087104031D4C2C4D2CC0
:10089800552C8B1585100310003003180130950076
:0408A80063000800E1
:02400E00C43FAD
:00000001FF
