:020000000C28CA
:10000800FE000308F4000408F5000A08F6002B298E
:10001800F7292A0B1328290B1328A801A80A210B52
:100028001628A001310BAD28B401B40AAD28A108E7
:10003800031D2628A008031D2628B108031D26280D
:10004800B801B80AB108031D2E28340B2E28B401B4
:10005800B801B80AA9080319280B0800AA08031D43
:100068000800B108031D0800A801B801B80A080073
:10007800E521210B43282A0B43280430B800310B13
:1000880047280430B8002B0A033003192C06031D37
:1000980008000230B8000800210B56287D10A00186
:1000A8000330B800A108031D0800FD107D1865285D
:1000B800FF30A500FB30A4006C30A3002030A20064
:1000C8007D142508240423042204031D6F2801300D
:1000D800A0000430B800310B08000430B800080054
:1000E800FD187B28D030A6008A30A700FD14270809
:1000F8002604031D81280430B8002A0B8528043003
:10010800B800310B89280430B800A108031D080085
:100118007D10B801B80A08007D10FD10B721B1089C
:10012800031D9B28340B9B28B401B801B80AA10809
:10013800031DA628A008031DA628B108031DA6288C
:10014800B801B80A2C082B04031D08007D11B8015A
:1001580008003808003A03191B28013A03193C28FB
:10016800033A03195028013A03197428073A031D62
:10017800080090280030051801303306031DCA28EE
:10018800FB0A65307B02031CCB28A101FB01003070
:10019800051801303F06031DD828FC0A65307C028B
:1001A800031CD9280130A100FC010030851A013058
:1001B8003206031DE628F90A65307902031CE72890
:1001C800B101B10AF9010030851A01303E06031D5C
:1001D800F328FA0A65307A02031CF428B101FA01FF
:1001E8000030051A01303606031D0029AF0A6530B4
:1001F8002F02031C0129AA01AF010030051A0130A2
:100208004106031D0E29B00A65303002031C0F2970
:10021800AA01AA0AB0010030851901303506031D6C
:100228001B29AD0A65302D02031C1C29A901AD014B
:100238000030851901304006031D2929AE0A6530B2
:100248002E02031C0800A901A90AAE0108000B1C14
:10025800332983120B108B117D110C3095000B196B
:100268008B1E38290B11640083120C1C6929831614
:100278000C1C692983120C10F8308F0030308E0066
:100288006400B70A3708FF3A0319B7016400A51FCD
:100298005429A20A0319A30A0319A40A0319A50ACF
:1002A8000630203E8400840A8313801F5E29A60A34
:1002B8000319A70AF81F6329F70A0319F80ABE20C9
:1002C8002C08F1002B08F000CE2176088A0075086A
:1002D800840074088300FE0E7E0E090039308316F0
:1002E80085008312850183169600073083129900D2
:1002F8009F0183169F0121309500C0308B0001308B
:100308008C00073081000130831290000430920085
:10031800FB308F001D308E000C309500FF308316A7
:10032800920083129301703083168F000800BB007F
:100338000830BC00BD013B08BA0007300310BA0CF6
:10034800FF3E0310031DA3293D0D3A04BD00031011
:10035800BB0D39083D02031CB3293908BD02BC0B8B
:100368009F293D0808002C082B0403190800AA0837
:10037800031DCC291430B90037089B210038031D10
:1003880008000130AB020030031CAC03AC020800CB
:100398000530BF291512701815169512F018951604
:1003A8007108D9217108D9210800F3007008F200FA
:1003B8000310F30CF20C0310F30CF20C7208930008
:1003C800080003302C02FF3003192B020318080021
:1003D8000A30B90037089B210038031D0800AB0A12
:1003E8000319AC0A0800FD01773084007D3024220F
:1003F800831320308400393024220130BE00BF002E
:10040800C000C1008301182A7D190F2A7830F7002F
:10041800EC30F8007D1578087704031D08008B156B
:100428008510950163000800722101308312A10034
:1004380064000D202C082B04031D1C2A08221C2AEA
:1004480064008001840A0406031900340406252A7E
:00000001FF
